:020000020000FC
:020000001AC024
:1000340029C0A0E0B1E008E00EBF0FEF0DBF10E053
:10004400EAE1F1E000E015901D92039515901D92F0
:10005400139503950130D1F760E00AB957E057B919
:1000640050E058B910E214B915B904E000938100C6
:1000740000E00093800001E000936F000E9479008B
:100084007894FFCF0E9465000E9479000E9484004A
:1000940018951395A12F212F4C930E913A2F0417E5
:1000A40030F40E945A00232F203009F0F6CF08952F
:1000B400A22F0C910F93A32F0C91A22F0C930F91AD
:1000C400A32F0C93089509B140E004FD446003FD9F
:1000D400426002FD41600E944B0009B110E004FD42
:1000E400146003FD126002FD116018B90895A0E0C8
:1000F4000C9110E002FD146001FD126000FD11601E
:1001040018B90895503221F000C050E255B908954D
:0801140050E055B90895000008
:00000001FF
