:020000020000FC
:020000001AC024
:100034002EC0A0E0B1E008E00EBF0FEF0DBF0E949C
:10004400390060E00AB957E057B950E058B910E2F6
:1000540014B915B904E00093810000E00093800016
:1000640001E000936F000E947E007894FFCF10E0BF
:10007400E4E2F1E000E015901D920395013031F0C7
:1000840015901D92139503950130D1F708950E94A0
:100094006A000E947E000E94890018951395A12F82
:1000A400212F4C930E913A2F041730F40E945F00D5
:1000B400232F203009F0F6CF0895A22F0C910F932F
:1000C400A32F0C91A22F0C930F91A32F0C9308959F
:1000D40009B140E004FD446003FD426002FD41605B
:1000E4000E94500009B110E004FD146003FD126089
:1000F40002FD116018B90895A0E00C9110E002FD12
:10010400146001FD126000FD116018B908955032A9
:1001140021F000C050E255B9089550E055B9089552
:020124000300D6
:00000001FF
