:020000020000FC
:0200000016C028
:10002C0043C0A0E0B1E008E00EBF0FEF0DBF0E948F
:10003C004A0000E40AB907E007B900E058B950E2F9
:10004C0054B955B9002700938400009385000DE046
:10005C000093810000E40093800005E30093890085
:10006C0006E30093880002E000936F00002706BDB2
:10007C0004BD05BD02E004BD05E005BD0FEF07BDE5
:10008C000E9483007894FFCF10E0ECE3F1E000E0F5
:10009C0015901D920395013031F015901D9213951A
:1000AC0003950130D1F708950E9479000E948300D6
:1000BC0018951395A12F212F4C930E913A2F0417BD
:1000CC0030F40E946E00232F203009F0F6CF0895F3
:1000DC00A22F0C910F93A32F0C91A22F0C930F9185
:1000EC00A32F0C93089509B140E004FD446003FD77
:1000FC00426002FD41600E945F00A0E00C9110E0A4
:10010C0002FD146001FD126000FD116018B906308B
:10011C0029F049F40895503231F000C050E255B93D
:10012C0002E404BD089550E055B902E004BD089501
:02013C000300BE
:00000001FF
