:020000020000FC
:020000001AC024
:1000340038C0A0E0B1E008E00EBF0FEF0DBF0E9492
:10004400430000E40AB907E007B900E058B950E2F8
:1000540054B955B904E00093810000E00093800096
:1000640001E000936F00002706BD04BD05BD02E05A
:1000740004BD05E005BD0FEF07BD0E94860078941E
:10008400FFCF10E0E2E4F1E000E015901D9203954B
:10009400013031F015901D92139503950130D1F77D
:1000A40008950E9472000E94860018951395A12F4E
:1000B400212F4C930E913A2F041730F40E946700BD
:1000C400232F203009F0F6CF0895A22F0C910F931F
:1000D400A32F0C91A22F0C930F91A32F0C9308958F
:1000E40009B140E004FD446003FD426002FD41604B
:1000F4000E94580009B110E004FD146003FD126071
:1001040002FD116018B90895A0E00C9110E002FD01
:10011400146001FD126000FD116018B9053029F06A
:1001240049F40895503231F000C050E255B902E468
:1001340004BD089550E055B902E004BD08950300DC
:00000001FF
