:020000020000FC
:020000001AC024
:1000340038C0A0E0B1E008E00EBF0FEF0DBFE8EB61
:10004400F0E000E015901D92039515901D92139514
:1000540003950330D1F704E00093810000E000939E
:10006400800001E000936F0078941AC01395A12FCB
:10007400212F4C930E913A2F041788F40E944600C6
:10008400232F203061F0F6CFA22F0C910F93A32FD2
:100094000C91A22F0C930F91A32F0C930895089504
:1000A400FFCF503221F000C050E255B9189550E00E
:0800B40055B918950401000084
:00000001FF
